:020000041000EA
:10000000002008205B0100101B0100101D010010E2
:100010001101001011010010110100101101001058
:100020001901001019010010190100101F01001022
:10003000110100101901001021010010230100100E
:100040001101001011010010110100101101001028
:100050001101001011010010110100101101001018
:100060001101001011010010110100101101001008
:1000700011010010110100101101001011010010F8
:1000800011010010110100101101001011010010E8
:1000900011010010110100101101001011010010D8
:1000A00011010010110100101101001011010010C8
:1000B00011010010110100101101001011010010B8
:1000C00011010010110100101101001011010010A8
:1000D0001101001011010010110100101101001098
:1000E0001101001011010010110100101101001088
:1000F0001101001011010010110100101101001078
:100100001101001011010010110100101101001067
:10011000EFF30580103800BE00BE00BE00BE00BE7A
:1001200000BE00BEF2EB8871D86C0010FC6C0010B1
:100130009C01001090A31AE7D3DEFFFF42012110BB
:10014000FF010000C0790000793512AB00201E4984
:10015000086006C881F3088810474FF050400068D7
:1001600008B10020F3E70DA40ECC002902D000F066
:1001700012F8F9E71549164A002000E001C1914242
:10018000FCD114498847144988471449884700BE60
:10019000FDE701C901C29A42FBD37047FC6C001015
:1001A000100100200C0F0020F87A00100000082039
:1001B00000000820F87A0010001008200010082025
:1001C000000000007047000008ED00E00C0F002068
:1001D0004C180020952E001069030010572E0010B7
:1001E00010B59DF80840944602B17CB90F2240EC4E
:1001F00040200E2241EC40200D224CEC40200C22ED
:1002000043EC40200B2344EC403010BD044802F086
:1002100053FF234620460024A4462146E6E700BFBC
:10022000585D001000B583B00020009001231A46ED
:100230000146FFF7D5FF024802F03EFF03B000BDC4
:10024000945D001000B583B00020009001230246A9
:100250001946FFF7C5FF024802F02EFF03B000BDAC
:10026000C45D001000B583B00120009000231A4641
:100270001946FFF7B5FF024802F01EFF03B000BDAC
:10028000F45D001038B50D4802F016FF002411E0AF
:100290000B254FF0000343EC40504FF4967000F0F4
:1002A000BFFF4FF0010343EC40504FF4967000F055
:1002B000B7FF0134032CEBDD38BD00BF245E001016
:1002C00000B583B0114802F0F7FEFFF7BBFF40F224
:1002D000DC5000F0A5FFFFF7C5FF4FF47A6000F097
:1002E0009FFFFFF7CFFF0021009101230A46184628
:1002F000FFF776FF4FF4FA7000F092FFFFF792FFDE
:10030000034802F0D9FE03B000BD00BF605E0010DC
:10031000805E001010B5044600F0A0F84FF0010315
:1003200043EC44404FF0000343EC404010BD08B59F
:100330000F20FFF7EFFF0E20FFF7ECFF0D20FFF778
:10034000E9FF0C20FFF7E6FF0B20FFF7E3FF10208B
:1003500000F084F810204FF0000343EC440000222A
:10036000012100F063F808BD10B502F0A1FE4FF4C2
:10037000FA6000F055FFFFF7DAFF1B4C204602F051
:100380009BFE1A4802F098FE1021194802F0C4FEA4
:10039000204602F091FEFFF745FF012203E00A200C
:1003A00000F03EFF22464FF050435C6804F4803179
:1003B000C4F30044002AF2D00029F0D11E2000F03E
:1003C0002FFF4FF050435B6813F4803FE7D1FFF7F6
:1003D00077FF4FF050435B6813F4803FDFD10A2072
:1003E00000F01EFFF5E700BFAC5E0010E45E0010F9
:1003F000185F00100C4B03EB800253F8203083F0A1
:10040000400303F0C00302F5805CCCF80030C0006C
:1004100000F1804000F52030416002F540524FF479
:1004200080731360704700BF0480034000B5DFF89D
:1004300028E00EEB800C69B1082302B104221343BB
:100440005EF82020534003F00C030CF5805CCCF8E0
:10045000003000BD0B46F0E70480034008B54FF0C4
:10046000000242EC440042EC40000521FFF7C2FFCD
:1004700008BD00000FB400B583B0084802F01CFEB0
:10048000049B3BB105A90191184602F025FE0448E2
:1004900002F012FE012002F0DBFC00BF4C5F0010F6
:1004A000A0640010EFF3108072B6064BD3E8CF1FA4
:1004B00001220029FAD1C3E8412F0029F6D1BFF368
:1004C0005F8F7047471200200023034AC2E88F3F26
:1004D00080F31088704700BF4712002070B50546B2
:1004E0000C461646FFF7DEFFE208A95C04F0070C95
:1004F000012303FA0CF3194205D1DBB20B43AB54D1
:10050000FFF7E2FF70BD21463046FFF7B3FFF8B5B5
:1005100005460F4614461E46FFF7C4FF00E00134AF
:10052000B4420ED84FEAD40C15F80C1004F00703AF
:1005300001229A401142F2D1D2B20A4305F80C20AE
:1005400001E04FF0FF34FFF7BFFF002C01DB204636
:10055000F8BD002FFBD00698FFF78CFF054A1078F6
:10056000431CDBB21370172B02D9134610221A70EA
:10057000704700BF500E002000B583B00146044B09
:1005800000931F2318220348FFF7C1FF03B000BDEB
:100590005C5F00108C1300204FF0E022936843F062
:1005A0000053936070470000002305E0044A1A449A
:1005B0000021C2E88F1F01331F2BF7D9704700BFFE
:1005C0003C120020064B9B68103043F82010BFF30C
:1005D0005F8F00230349C1E88F3F82F31088704783
:1005E00000ED00E0451200200048704700E400E004
:1005F00008B5FFF7F9FF002304E04FF0803240F820
:10060000042B01330C2BF8D962B608BD08B503885A
:10061000DA0A1C2A06D15B050BD45B15023300EB0A
:10062000430008BD064B074A4FF4A071064802F08C
:1006300015FC03F5FF1303F5FF531F33EDE700BF70
:10064000785F0010E0670010905F001008B5091A8D
:1006500001F2FC7240F6FE739A4208D8081F11F0AE
:10066000010F04D1C0F34A0040F4604008BD034BC1
:10067000034A4FF49971034802F0F0FBD45F001075
:10068000D4670010905F00104209064B53F82220F7
:1006900000F01F00012383401A4214BF01200020F4
:1006A000704700BF00E100E03AB1064B00F1600284
:1006B00043F8221043F8201070472030014B43F8D4
:1006C0002010704700E100E008B50A4600F01F0363
:1006D000012199404009FFF7E7FF08BD00F01F0224
:1006E0004009012393404030014A42F820307047CE
:1006F00000E100E0024B9B68103053F82000704787
:1007000000ED00E008B5FFF7F5FF034BC01A4728DE
:100710008CBF0020012008BD540E002070B5054696
:100720000C46EFF3108372B61E46104BD3E8CF1F72
:1007300001220029FAD1C3E8412F0029F6D1BFF3E5
:100740005F8FFFF7D7FF0A4B984201D0A04205D137
:10075000324621462846FFF735FF70BD054B064A55
:1007600040F21111054802F079FB00BF451200204C
:10077000110100100460001008680010905F001064
:100780002DE9F04F87B000911546EFF3108372B654
:100790009B467C4BD3E8CF1F01220029FAD1C3E846
:1007A000412F0029F6D1BFF35F8F774B93F90040BB
:1007B000002C44DB804604EB4407744B03EB8707B3
:1007C00097F90610704A1170714A926800F1100191
:1007D00052F82190A9EB0302472A3ED96D4B994567
:1007E00034D14FF42143ADF80C304FEA440904EB07
:1007F0004400664E06EB800067490230FFF726FF93
:10080000ADF80E004BF60153ADF81030FF238DF814
:1008100012308DF81350009B0593A14406EB890319
:1008200006AA12E9070083E8070047F001095A46C3
:1008300049464046FFF7C6FE07B0BDE8F08F574B6C
:10084000574A4FF4D071574802F008FB564B544AB0
:1008500040F2A711534802F001FB29F00102924631
:10086000D31A524AA2FB0312D20802EB4202B3EBA4
:10087000820F0FD153460026DA79AA4212D993F992
:100880000620002A0DDB02EB42021E463F4B03EB23
:100890008203F1E7464B424A4FF4DC71414802F0D3
:1008A000DDFA1E46A6B344F60103ADF80C304FF452
:1008B0008F43ADF80E3096F906309A46002B1ADABF
:1008C0004BF60150ADF810008DF812A08DF81350C2
:1008D000009B05933946301DFFF7B8FEB080B47118
:1008E00004EB4404294B03EB840306AA12E9070036
:1008F00083E807009BE7301DFFF788FE014604EB05
:100900004402224B03EB8203181DFFF79FFED9E739
:100910004FF42143ADF80C306300019304EB44061F
:10092000DFF8689009EB86061B49B01CFFF78EFEC6
:10093000ADF80E005146301DFFF788FEADF81000EF
:100940004AF6AA2352464946521A524153431B0DB6
:100950008DF812308DF8135000990591019B2344B6
:1009600009EB830906AB13E9070089E8070044F6A1
:100970000103AAF800304FF48F43AAF8023047F081
:10098000010954E74512002044180020540E0020AD
:1009900000ED00E0110100109C0E00203C600010F2
:1009A000F0670010905F001064600010ABAAAAAA64
:1009B0008C60001038B540F00104344BE31A472B2B
:1009C00035D8EFF30581C9B2002937D0EFF3108E87
:1009D00072B62F4BD3E8CFCF0122BCF1000FF9D173
:1009E000C3E84C2FBCF1000FF4D1BFF35F8F4AF680
:1009F000AA230246DFF894C06546521B5241534376
:100A00001B0D4FFA83FC234B9B6853F82130A34204
:100A10001BD00023052B32D803EB43011B4A02EB0A
:100A2000810292F90620624520D00133F2E71A4B89
:100A30001A4A40F2A3211A4802F010FA194B174A39
:100A400040F2A621164802F009FA124B9B68164A9A
:100A500043F82120154B1A78827183F800C00023D7
:100A60000B4AC2E88F3F8EF3108838BD074A02EB6D
:100A70008101FF248C714BF601538B80EAE70C4B0C
:100A8000064A40F2B721064802F0E8F9540E002069
:100A90004512002000ED00E010610010B867001062
:100AA000905F001038610010110100104418002000
:100AB0004461001000B583B00146064B0093052346
:100AC00000220548FFF723FD002801DBC0F13300B9
:100AD00003B000BD4C61001049180020014B0B44CD
:100AE000036070473C12002010B50446FFF736FD46
:100AF00001462046FFF7F2FFFF232371BFF35F8F0C
:100B000010BD10B50446FFF729FD01462046FFF74A
:100B1000E5FFFF23237100236371BFF35F8F10BDD7
:100B200010B50D4C09E00D4B0D4A1A210D4802F08D
:100B300095F92046FFF7D8FF08340B4B9C4209D2A9
:100B40002368002BF5D0012BEDD12046FFF7D9FF0C
:100B50000834F2E710BD00BF040F002068610010E8
:100B600048680010886100100C0F0020024B0B44F5
:100B70000360BFF35F8F70473C12002010B504463E
:100B80000120FFF7F9FC01462046FFF7EFFF10BDFB
:100B90000246EFF30583DBB2103B990804D003480B
:100BA00003F00303136070470148F9E700800B402E
:100BB00000000B4000B5D0F828C0A2EB0C0E0B1DB6
:100BC00050F82330A3EB0C039E4506D3D0F820C089
:100BD00001238B401CEA030F02D1043140F821208D
:100BE00000BD41EA0040704740BF0020002170472F
:100BF0002DE9F04F85B003A8FFF7CAFFA04B98423C
:100C000014BF00230123039901EB83039D4A52F88B
:100C100023402378994206D1054601228A4000F5F7
:100C200041535A6077E0984B984AB921984802F0AE
:100C300015F9D6F814B0DBF810305846984738B399
:100C4000DBF800300193DBF804B091E0284600F0B7
:100C5000B3FB019B1A184BEB010995E09C463EF94A
:100C60000860002E0EDBBCF9003003EB43034FEAB3
:100C7000C3080EEBC3039868D968101A69EB010129
:100C80000029EBDA009B2AF80360ACF800701DE045
:100C9000009E3AF9063023812369EFF3108272B681
:100CA000D3E8CF0F01210028FAD1C3E8401F002864
:100CB000F6D1BFF35F8FB4F902302AF806306780AF
:100CC00021690023C1E88F3F82F31088A38813F4C1
:100CD000004F72D0B4F90830002BC0F2BA806269BC
:100CE00003EB430302EBC3039F68DE683A463346D7
:100CF00003992846FFF75EFFA379002B40F0B980E7
:100D0000284600F059FB3F1A66EB0106012F76F1E9
:100D1000000680F2AA80039A01239340EB63B4F9A2
:100D20000870002FD2DBD4F814A007EB4706F300BD
:100D300000930AEBC606D6F80880D6F80C90284631
:100D400000F03AFBB0EB080061EB0903002BBDDBC0
:100D5000D6F810B0BBF1020F3FF46BAF718889B2C7
:100D6000B4F90800FFF73DFF7169D84701908B4641
:100D7000019A52EA0B038BD0BBF1000FBFF666AFAE
:100D8000B8EB020269EB0B09B260C6F80C90009B4D
:100D90003AF90360002E99DBD4F814E006EB460321
:100DA0000EEBC3039968DB68511A69EB0303002B50
:100DB0008CDBA4462CF8086F53E72369EFF310820D
:100DC00072B6D3E8CF0F01210028FAD1C3E8401F43
:100DD0000028F6D1BFF35F8FB4F804800FFA88F8CB
:100DE0004FF6FF73A38021690023C1E88F3F82F390
:100DF00010881AE01F4630F90A60002E0FDBB7F9A1
:100E0000003003EB43034FEAC30A00EBC3039968C6
:100E1000DA68BCEB01016EEB0202002AEADAA7F8FD
:100E2000008030F9098020F80960B8F1000FFFF662
:100E300051AF606908EB48034FEAC30900EBC303F5
:100E4000D3F808C0D3F80CE004F10807B4F908603F
:100E5000D3E7039C284600F0AFFA10F1004241F1BD
:100E6000000321462846FFF7A5FE40BF05B0BDE8B8
:100E7000F08F0023A37104F10808B4F908300BE0E7
:100E800000800B40001800201C62001074680010E5
:100E90004862001080461346B3F1FF3F3FF430AF85
:100EA000616903EB43024FEAC20E01EBC20031F964
:100EB0003220B0F802C01CF4004FEBD0A8F800209C
:100EC0002069EFF3108C72B6D0E8CFAF5FF0010964
:100ED000BAF1000FF8D1C0E84A9FBAF1000FF3D180
:100EE000BFF35F8FB4F9020021F80E00638021691F
:100EF0000023C1E88F3F8CF31088CCE7F8B5044697
:100F00000D4611460A4B984210D000262E44012768
:100F100007FA05F525623046FFF700FC39463046F2
:100F2000FFF7D2FB04F501542560F8BD0426EDE778
:100F300000800B40F8B504460E4617461D46C160BA
:100F4000FFF70CFB164B034423612770ABB26381A0
:100F50004FF05042127862704FF6FF722281A280E9
:100F6000013B63804FF0000C08E00CF1FF300CEB0C
:100F70004C0E636923F83E000CF1010CAC45F4D330
:100F8000084B9E4214BF0023012307EB8303064A4C
:100F900042F82340054A39463046FFF7AFFFF8BD17
:100FA0003C12002000800B4000180020F10B0010C4
:100FB00008B5054B1B690BB1034808BD034B044A38
:100FC0007221044801F04AFFB40E00208462001030
:100FD0005C68001048620010F8B504469E4600693F
:100FE000EFF3108172B6D0E8CF6F0125002EFAD151
:100FF000C0E8465F002EF6D1BFF35F8FB4F9025010
:10100000666905EB4500C70006EBC000002D03DB59
:1010100036F907C0A4F802C04FF0000C2369C3E8FA
:101020008FCF81F31088654533DB069901610799FD
:1010300041618260C0F80CE0418889B20131C1F39E
:101040000E0101B9012141802846FFF7CAFD23693D
:10105000EFF3108272B6D3E8CFCF0121BCF1000FBD
:10106000F9D1C3E84C1FBCF1000FF4D1BFF35F8F7F
:10107000A388F353A58021690023C1E88F3F82F341
:101080001088E368217801228A4003F501535A60F1
:10109000F8BD4FF0FF30FBE770B582B0064615464D
:1010A0001C469DF8203033B900F09CF9854264EB72
:1010B000010100290ADB079B0193069B00932A4646
:1010C00023463046FFF788FF02B070BD0020FBE7E3
:1010D000F0B585B007460E4615461C46FFF768FF7B
:1010E0009DF828300293019400953A463346FFF765
:1010F000D3FF05B0F0BD03464089B0EB214F31DD91
:1011000010B50A14586902EB420200EBC2001A69DA
:10111000EFF3108C72B6D2E8CF4F5FF0010E002CC7
:10112000F9D1C2E844EF002CF5D1BFF35F8F4288BC
:1011300092B289B28A420FD0002019690022C1E818
:101140008F2F8CF3108830B1DA681B780121994019
:1011500002F50153596010BD42F400424280012063
:101160009871EAE70020704710B50446FFF720FFAA
:101170002146FFF7C0FF10BD40787047F0B583B03F
:10118000EFF30583DBB2CBB904460D46861F41F170
:10119000FF37B04271EB070301D20026374600F05B
:1011A00021F9301A67EB0103012873F1000308DA13
:1011B0002046294600F01EF903B0F0BD0C48FFF7A9
:1011C00059F9002300930B4A30463946FFF780FF58
:1011D000002801DAECE720BF074B5B6A9F42FAD890
:1011E000054A926AB242E3D29F42E1D1F3E700BFDF
:1011F000A8620010E90B001000000B4038B505464E
:101200000C4600F0EFF8281844EB0101002902DB3E
:10121000FFF7B4FF38BD4FF0FF306FF00041F7E744
:1012200008B5C30E4101091A63F100039B0043EAAC
:1012300091738900091843F10003DB00C80043EAF9
:101240005171FFF7DBFF08BDF0B583B00C46EFF33B
:101250000583DBB293B1414B5B6A8B4209D33F4AB2
:10126000926A824208D2A34201D0012002E000200B
:1012700000E0002003B0F0BD0120FBE70546FFF7CA
:1012800097FEC3681F460678184600F095F82A1A9C
:1012900064EB0101331D57F823301B1A9A4271F198
:1012A00000011EDB2D4B5B6A9C4207D82B4A926AD9
:1012B000AA4250D29C4201D00120DBE720BF274B3D
:1012C0005B6A9C4209D8254A926AAA4207D29C428C
:1012D00001D00120CEE70020CCE70020CAE70120A2
:1012E000C8E7002300931E4A28462146FFF7F0FE78
:1012F000002818DD194B5B6A9C4205D8174A926A90
:10130000AA4202D29C4200D120BFFFF72DFF134B0F
:101310005B6A9C421BD8114A926AAA4219D29C422B
:1013200013D00120A6E70D4B5B6A9C4209D80B4AFB
:10133000926AAA4207D29C4201D001209AE700207B
:1013400098E7002096E7012094E7002092E700202C
:1013500090E701208EE701208CE700BF00000B40E2
:10136000E90B00100048704700000B40084B1B6958
:1013700003B1704710B5FFF7F5FF0446032100F0F5
:1013800009F81023032221460148FFF7D3FD10BDC1
:10139000B40E002008B5054ADFF818C0044B6045BC
:1013A00014BF1846581CFFF799F808BDF8620010E2
:1013B0009013002000800B400246436A906A194651
:1013C000536A9942FAD17047416A00E0416A9942F2
:1013D000FCD300E0416A994202D1816A9142F9D37B
:1013E0007047000008B50248FFF7E6FF08BD00BFE0
:1013F00000000B4008B502460B460248FFF7E4FF29
:1014000008BD00BF00000B4070B515461E4600EB3E
:10141000400C4FEA8C0C0CF1804C0CF5803CDCF855
:101420000430049A934201D2CCF80420041FE4B2A1
:10143000012C2AD90CF540534FF400621A60204B5E
:1014400053F820204AB15B69B3FBF2FE0EF1010EA6
:101450000EEB4E0EBEF1030EFCD2DCF8002082EA49
:10146000451202F0E0020CF5805ECEF80020012C5F
:1014700017D90CF500534FF400621A60049BCCF8A6
:1014800004300F4B43F8206070BD0129D2D10CF518
:10149000405303221A60DCF8083013F0010FFAD031
:1014A000DBE7DCF800304B4003F00303CEF80030FC
:1014B000DCF8083001228A401342F9D0D9E700BF96
:1014C0009413002000B583B04FF4803CCDF800C0E9
:1014D000FFF79AFF03B000BD014B53F8200070479F
:1014E0009413002038B58E469446049A3349B1FBD4
:1014F000FEF1334C6444334DAC4234D8BCFBF1F4C0
:10150000A4F11005B5F5987F33D85D1E062D36D8A9
:10151000551E062D33D8B1EB1C1F36D8120342EAF4
:1015200003410368002B36DB274B984243D00E2340
:1015300001229A40254B1A6003F580531A60244B10
:101540009B6832EA0303FAD1C0F800E0846000F53A
:1015500040520432212313600368002BFCDAC1607F
:101560000823136038BD1B4B1B4A11211B4801F097
:1015700075FC1B4B184A1921184801F06FFC194BD8
:10158000154A1C21154801F069FC174B124A23210A
:10159000124801F063FC036803F03F037345C3D1B5
:1015A0008368C3F30B03A342BED1C36803F4EE23E5
:1015B0008B42B9D1D6E70F23BAE700BF001BB700B3
:1015C00080E84BD380F8A93200800540002002401B
:1015D000000002401C6300108C6800106C63001057
:1015E000B0630010CC63001018640010024B1A683E
:1015F000024B5A60704700BFF017002000800D407A
:1016000008B5164B4FF080421A60A3F54123144AE7
:101610009A6051B103F540234FF0E0621A6048B977
:10162000104B4FF000421A6008BD0C4B4FF0E062C7
:101630001A60F4E74FF47A7303FB00F00A4B18606A
:10164000B0F1807F02D36FF07F421A60FFF7CEFFC8
:10165000044B4FF080421A60E6E700BF00B00D4037
:10166000F3FFFF0100A00D40F017002008B50E4B5E
:101670004FF0804CC3F800C098B140F001030B4814
:10168000DFF82CC0C0F81CC0DFF828C083EA0C0CBF
:10169000C0F820C04162836200211046FFF7B0FF0E
:1016A00008BD024BD861F7E700B00D4000800D4047
:1016B000D3C007B02D3FF84F054A00EB400302EBC3
:1016C0008303596000EB40008000012313507047F2
:1016D000008010402DE9F0410646174698460C461A
:1016E00009B901231C460023DB8A002242E800F2EC
:1016F00012F4800F0BD1102144F252209847054676
:1017000043463A4621463046A847BDE8F0810421C9
:1017100044F2522098470546F2E708B50023DB8AD9
:10172000002242E800F212F4800F02D11021984703
:1017300008BD04219847FBE708B5031E0FDB41F005
:10174000200082B141F030010022D27C022A0CD06C
:101750000A460A214FF48170FFF7BCFF0BE011F03D
:10176000200FF5D0F0E70146EEE70A460A214FF4D4
:101770009170FFF7AFFF0000034BD3F82838002B20
:10178000FAD0BFF35F8F704700000E40002207E0E1
:10179000054B13449B00BFF35F8F0021196001329A
:1017A000072AF5D9704700BF0382031008B5FFF779
:1017B000EDFF08BD074B4FF42A621A604FF48D729B
:1017C000DA6003F50053044A1A60024B5B68002B91
:1017D000FBDA70470080044000B0FA0010B5044600
:1017E00002E054F8043B9847014B9C42F9D310BDEA
:1017F000505D00107047000008B50248FFF7EEFF8B
:1018000008BD00BF105D0010064B074A1A6003F5C3
:101810008053064A1A60064B9A68044B9343FAD1E8
:10182000704700BF002002407F3BEFEFF6FFF3035D
:1018300000000240054BDB6CB3F5004F00D0704751
:10184000034B4FF48022DA64F9E700BF0000115027
:10185000002011504FF0E022D2F8881D034B0B43BB
:10186000C2F8883D10EE3004704700BF030330001B
:10187000054B6FF060421A60044B9B68DB4333F00A
:101880006043F9D1704700BF0030024000000240C1
:1018900008B545F25320FFF740FF03460420984760
:1018A00008BD08B545F25320FFF737FF0346012076
:1018B000984708BD08B5FEF777FE08BD10B50C497E
:1018C0000C4C641AA4082246442C28BF44229200DF
:1018D000094804F04DF904E0084A074B43F8242076
:1018E0000134432CF8D9044A054B9A6010BD00BF5F
:1018F0000000001010010010000000201101001075
:1019000000ED00E038B50420FFF7E6FD064BA3FB31
:101910000035AD0C002404E02946E0B2FFF7CCFE10
:101920000134052CF8DD38BD83DE1B4330B583B0B0
:10193000264B0022C3F88420FFF73CFF244B0122F2
:10194000DA63224B5B6C012BFBD1214B03221A6320
:101950001E4B9B6B012BFBD10224009405231D4AD7
:1019600001211D48FFF7BEFD052500952B461B4AAA
:1019700001211B48FFF7B6FD1A4B00222146042027
:10198000FFF7A0FD184C2346002201212846FFF74F
:1019900099FD164D2B46002211460820FFF792FDB7
:1019A0002B46002211460920FFF78CFD234600221A
:1019B00011460620FFF786FD234600221146072028
:1019C000FFF780FDFFF79EFF03B030BD0000014030
:1019D00000300140002F685900000540008C864708
:1019E00000800540001BB70080D1F008006CDC02CD
:1019F00086B003B451FC0804CDE9020151FC09048E
:101A0000CDE9040151EC0A04CDE9060103BCF0471D
:101A1000BDE800504EEC00C4BDE800504EEC01C4DF
:101A2000BDE800504EEC02C400BD000000B5FFF759
:101A3000DFFF02E010FE30F4F8D441EC100443EC78
:101A4000112400EE010410EE010480EE200451EC9C
:101A50001004704700B5FFF7CBFF02E010FE30F432
:101A6000F8D441EC100443EC112400EE010410EE14
:101A7000210480EE200451EC3004704700B5FFF7DC
:101A8000B7FF02E010FE30F4F8D410B541EC1004BA
:101A900043EC112451EC040453EC0524A0FB024C4C
:101AA0005FF0000EE0FB03CEE1FB02CE4CEC2044E5
:101AB0000024E1FB03E444EC30E480EE200451EC2C
:101AC000500410BD00B5FFF793FF02E010FE30F4A4
:101AD000F8D441EC100443EC112451EC2104A0FB98
:101AE00001126FEA820252FB100052FB12F252FB0B
:101AF0001000A0EBD07C53EC04245CFB13F153ECFE
:101B00001524A1FB022001FB030053EC4424A2EBAB
:101B1000000050FB1CF24FEA111312EB017043EB73
:101B2000E27140EA515020EA915020F0070053EC56
:101B30007524A0FB023C53EC752400FB03CC01FB95
:101B400002CC53EC0424ACEB824C40EA5C70A0F174
:101B5000010041EC400480EE200451EC7004704719
:101B600000B5FFF745FF02E010FE30F4F8D440EC7A
:101B7000700400EE010410EE210480EE200451EC0C
:101B80003004704700B5FFF733FF02E010FE30F479
:101B9000F8D440EC600400EE010410EE210480EE65
:101BA000200451EC3004704700B5FFF721FF02E03C
:101BB00010FE30F4F8D441EC800400EE010410EE85
:101BC000010480EE400410EE1304704700B5FFF7E7
:101BD0000FFF02E010FE30F4F8D441EC800400EE78
:101BE000010410EE010480EE400410EE330470474F
:101BF00000B5FFF7FDFE02E010FE30F4F8D441EC32
:101C0000100443EC112400EE010410EE3004C0F384
:101C10000070704700B5FFF7EBFE02E010FE30F4F5
:101C2000F8D443EC102441EC110400EE010410EE52
:101C300030F48CBF01200020704700BF00B5FFF7D3
:101C4000D7FE02E010FE30F4F8D443EC102441EC4F
:101C5000110400EE010410EE30F42CBF012000202E
:101C6000704700BF00B5FFF7C3FE02E010FE30F47E
:101C7000F8D441EC100443EC112400EE010410EE02
:101C800030F42CBF01200020704700BF00B5FFF7E3
:101C9000AFFE02E010FE30F4F8D441EC100443EC47
:101CA000112400EE010410EE30F48CBF012000205E
:101CB000704700BF704720B108B50A68496890476F
:101CC00008BD70470146002008E000EB8000531C6F
:101CD0000B60137803EB4003A3F130000A6813781C
:101CE000303BDBB2092BF0D970472DE9F04F83B0C0
:101CF00005460E4693461F46DDF830800D9CDDF804
:101D000038900F9B13F00202009228D113F0010FBC
:101D10000FD05A461BE002F1010B3B463146202012
:101D2000A8470AF1010A5A46CA45F4D3DDF804B0BF
:101D30000DE0A2465A46CDF804B0F5E7013C02F1A9
:101D4000010A3B46314618F80400A8475246002CC9
:101D5000F4D1009B5BB9104603B0BDE8F08F5A4642
:101D6000F5E7541C3B4631462020A8472246A2EB0B
:101D70000B034B45F5D3EEE72DE9F04184B0044663
:101D80000D4616461F46DDF828E0DDF82CC09DF80C
:101D900030301A4698460E980F99109B13F0020F98
:101DA00021D169B113F0010F0AD012B913F00C0F51
:101DB00006D0013904E030220EF80C200CF1010CA1
:101DC000844502D2BCF11F0FF5D913F0010F0AD0E0
:101DD0008C4508D2BCF11F0F05D830220EF80C201C
:101DE0000CF1010CF1E713F0100F17D013F4806F12
:101DF00006D1BCF1000F03D0844529D08C4527D0F3
:101E00000D9A102A3CD00D9A022A47D0BCF11F0F20
:101E10000FD830220EF80C200CF1010CBCF11F0F72
:101E200007D84246002A42D02D220EF80C200CF191
:101E3000010C03930291CDF804C0CDF800E03B46BD
:101E4000324629462046FFF750FF04B0BDE8F08136
:101E5000BCF1010220D00D9810280FD094460D9AA5
:101E6000102AD0D113F0200FCDD0BCF11F0FCAD84B
:101E700058220EF80C200CF1010CC7E7ACF1020C53
:101E800013F0200FEBD1BCF11F0FE8D878220EF829
:101E90000C200CF1010CB9E79446B1E7BCF11F0F1F
:101EA000C7D862220EF80C200CF1010CAEE713F03B
:101EB000040F05D02B220EF80C200CF1010CB8E712
:101EC00013F0080FB5D020220EF80C200CF1010CF5
:101ED000AFE7F0B591B00D4616461F46169B189A0F
:101EE0001B990BB921F0100111F4806E1DD063B362
:101EF0004FF0000E19E011F0200F24D04124A4442B
:101F00005FFA8CFCACF10A0C5FFA8CFC0EF1010458
:101F10000EF1400EEE440EF820CCB3FBF2FC9342DF
:101F200014D31F2C12D8A6466346B3FBF2FC02FB67
:101F30001C3C5FFA8CFCBCF1090FDCD80CF1300CB6
:101F40005FFA8CFCE2E76124D9E71C4606911A9BF4
:101F50000593199B049303929DF85C3002930194BE
:101F600008AB00933B4632462946FFF705FF11B008
:101F7000F0BD2DE9F04F95B0834609910A920B937D
:101F80001E9F1F9DDDF88880DDF88C90DDF898A0FD
:101F900057EA050301D12AF0100A1AF4806422D00E
:101FA00057EA05032DD000241DE01AF0200F26D09B
:101FB00041231344DBB20A3BDBB2661C04F150023E
:101FC0000DEB020404F8203C42464B4638462946B5
:101FD00003F072FE474575EB090513D31F2E11D888
:101FE000344607460D4642464B463846294603F0DE
:101FF00063FED2B2092AD8D83032D3B2DDE76123EA
:10200000D7E70026CDF818A0259B0593249B0493C1
:10201000CDF80C809DF88030029301960CAB0093B4
:102020000B9B0A9A09995846FFF7A6FE15B0BDE822
:10203000F08F0000000000002DE9F04F93B004463F
:102040000D460E921E46DDE91C8942464B4640462F
:102050004946FFF7D1FD002840F0FE804FF0FF32E7
:10206000B54B40464946FFF715FE002840F0F48086
:102070004FF0FF326FF4801340464946FFF7CEFD24
:10208000002840F0E9800022002340464946FFF73F
:10209000C5FD002840F0F180CDE90689209B13F4AE
:1020A00080630F9301D106231E93DDE906AB5246F0
:1020B0005B46CDE90A23079B5AEA030100F0E7805B
:1020C000C3F30A50C3F313034FF0000A4FF0000BA1
:1020D000CDE908AB089243F07F53099343F44013D2
:1020E0000993A0F2FF30FFF73FFD81A3D3E900235E
:1020F000FFF7C8FC80A3D3E90023FFF79BFC8246CF
:102100008B4600228D4BDDE90801FFF7A7FC7CA37D
:10211000D3E90023FFF7B6FC02460B46504659466A
:10212000FFF788FCFFF744FD0890FFF71DFD82468E
:102130008B4675A3D3E90023FFF7A4FC0022804B54
:10214000FFF778FCFFF734FD074671A3D3E90023BE
:1021500050465946FFF796FC82468B463846FFF7B5
:1021600003FD6DA3D3E90023FFF78CFC02460B4669
:1021700050465946FFF772FC02460B4682468B4694
:10218000FFF780FCCDE90C0107F2FF3300210022AC
:10219000CDE90A121B050B9300230A9350465946BA
:1021A00052465B46FFF746FCCDE9100152465B46BE
:1021B00000204FF08041FFF751FC82468B46002201
:1021C000604BDDE90C01FFF781FC00225E4BFFF75D
:1021D00031FC02460B46DDE90C01FFF777FC0022DB
:1021E0005A4BFFF727FC02460B46DDE90C01FFF7CF
:1021F0006DFC02460B4650465946FFF71BFC024653
:102200000B46DDE91001FFF761FC0022504BFFF7A0
:1022100011FCDDE90A23FFF735FC02460B46CDE948
:102220000C23DDE90CABCDE90AABDDE90623FFF7B2
:1022300031FD50B1089B013B08930022424BDDE980
:102240000C01FFF743FCCDE90A01089B6333C62B61
:1022500048D804231F461EE0209B04931F9B039332
:102260001E9B0293CDE9008933460E9A29462046EB
:1022700000F002F913B0BDE8F08F9FED297B8DEDE2
:10228000067BCDF8188009F10043079306E7002389
:10229000089304231F46209B13F4006F63D0DDE9ED
:1022A0000A1213460B4315D01FA3D3E90023DDE91F
:1022B00006AB50465946FFF7D9FC002800F0B6801F
:1022C0001BA3D3E9002350465946FFF7A7FC00287B
:1022D00000F0AC801E9A089B9A423BDDD31A013B6A
:1022E0001E9339E005231F46D5E700BFAFF30080FA
:1022F000FB799F501344D33FB3C8608B288AC63FF5
:1023000061436F63A787D23F71A379094F930A4056
:102310001655B5BBB16B0240EF39FAFE422EE63FCF
:1023200000000000000000002D431CEBE2361A3FC5
:102330000000000080842E41FFFFEF7F0000F83F87
:102340000000E03F00002C40000024400000184046
:102350000000F03F00231E93209B43F480632093F2
:1023600000231F4608931F9A974269D2D31B9A46AF
:10237000209B13F002039B4602D00FB100239A4624
:10238000089B3BB1DDE90A23DDE90601FFF79EFB6F
:10239000CDE906010022002340464946FFF73EFCF6
:1023A000002850D1209B23F400630493CDF80CA0A7
:1023B0001E9B02939DED067B8DED007B33460E9AAE
:1023C0002946204600F058F8002F3FF453AF209BD9
:1023D00013F0200F3FD04FF0450C00F101083346B9
:1023E000024629466046A047089981EAE172A2EBBD
:1023F000E172052305937B1E0493002303930A23B4
:102400000293CB0F01930092334642462946204661
:10241000FFF75FFD5B46002B3FF42CAF0246DDF873
:10242000389037462E4625461F9C1EE01E9B002BEB
:1024300099D00F9B002B96D01E9B013B1E9392E7D9
:1024400000239A4694E7DDE90601024601F10043C4
:10245000CDE90623A6E74FF0650CBEE702F10108BF
:102460003B4631462020A8474246A2EB0903A3423F
:10247000F4D31046FEE600BF2DE9F04F2DED028BA0
:1024800095B00790089109920A93DDE92089229D71
:1024900042464B4640464946FFF7AEFB002834D142
:1024A0004FF0FF326FF4801340464946FFF7B6FB0A
:1024B000002839D14FF0FF32A94B40464946FFF77B
:1024C000E9FB00283FD1A2A3D3E9002340464946B7
:1024D000FFF7E0FB00284CD19FA3D3E9002340463F
:1024E0004946FFF79BFB002843D1002200234046CA
:1024F0004946FFF793FB002849D10B90249B13F426
:10250000806F00F0B580002454E0249B0393239B4C
:10251000029303230193934B00930A9B099A089912
:102520000798FFF7E2FB50E1249B0393239B029360
:10253000042301938C4B00930A9B099A08990798EE
:10254000FFF7D3FB41E1249B13F0040F0ED0874B20
:1025500004222499039123990291019200930A9BEA
:10256000099A08990798FFF7C0FB2EE1804B0322D8
:10257000EFE7249B0493239B03930295CDE9008905
:102580000A9B099A08990798FFF756FD1DE14246F4
:102590004B4600200021FFF761FA8046894601235F
:1025A0000B93ABE704F150036B44302203F8202C6B
:1025B000013D01341F2C01D8092DF3D8404649466E
:1025C000FFF7F6FA0646FFF7CFFA02460B464046FB
:1025D0004946FFF743FA674B03EBC50393ED007BD6
:1025E000B0EE478AF0EE678A53EC172BFFF74AFAF2
:1025F00082468B46FFF7EEFA0746FFF7C7FA024618
:102600000B4650465946FFF729FA82468B46002270
:10261000594BFFF73FFB68B301373846FFF7B6FA6F
:1026200002460B4651EC180BFFF70CFB08B10136C4
:1026300000276DBB3046FFF797FA02460B4640462F
:102640004946FFF70BFA8046894600224A4BFFF7BE
:10265000E5FA00284CD10022474B40464946FFF797
:1026600019FB002844D116F0010F41D001363FE09C
:10267000062548E70022404B50465946FFF7CEFA60
:102680000028D6D117B117F0010FD2D00137D0E70B
:102690001F2C17D8013D394BA3FB0723DB08194634
:1026A00003EB8303A7EB4303621C303304F15000B8
:1026B0000DEB000404F8203C092F02D90F46144604
:1026C000E6E714461F2C0AD86B1E45B104F15002F0
:1026D0006A44302102F8201C1D460134F2E71F2C09
:1026E00006D804F150036B442E2203F8202C013449
:1026F0001F2C17D8224A82FB0632F317C3EBA20322
:102700001A4603EB8303A6EB4303611C303304F149
:1027100050000DEB000404F8203C16460AB10C46AC
:10272000E6E70C46249B13F0020F36D113F0010F9D
:1027300033D0239B002B4DD00B9B1BB9249B13F054
:102740000C0F49D0239B013B2393194621E000BF86
:102750000000000065CDCD410000000065CDCDC179
:10276000FFFFEF7F886400108C6400107C64001011
:1027700084640010F86800100000E03FCDCCCCCCA1
:102780006766666604F150036B44302203F8202C20
:1027900001348C4201D21F2CF4D91F2C08D80B9B7A
:1027A000E3B104F150036B442D2203F8202C0134D3
:1027B000249B0393239B029301940CAB00930A9BED
:1027C000099A08990798FFF790FA15B0BDEC028BAB
:1027D000BDE8F08F2399DCE72399DAE7249B13F017
:1027E000040F07D004F150036B442B2203F8202C74
:1027F0000134DDE7249B13F0080FD9D004F1500316
:102800006B44202203F8202C0134D1E72DE9F04F4E
:102810008FB0804617460D938946002900F0F68256
:1028200000260D9B1878002800F0F382252809D097
:10283000741C3B4632464946C0470D9B01330D93FD
:102840002646EEE701330D93002511E0202A24D01F
:10285000232A05D145F0100501330D93012306E02D
:10286000002304E045F0020501330D930123E3B199
:102870000D9B1A782B2A0AD0E8D92D2AF2D0302ABB
:1028800011D145F0010501330D930123EFE745F028
:10289000040501330D930123E9E745F008050133F1
:1028A0000D930123E3E70023E1E70A930D9B1A78D8
:1028B000A2F13003DBB2092B15D92A2A18D0DDF892
:1028C00028B00D9B1A782E2A22D00D9B1A786C2ADC
:1028D00043D039D9742A5CD07A2A5ED145F4807508
:1028E00001330D9359E00DA8FFF7ECF98346E8E7B3
:1028F000189B1A1D18921B68002B04DB9B460D9B2E
:1029000001330D93DDE745F00205C3F1000BF6E757
:1029100045F480655A1C0D925A78A2F13003DBB25F
:10292000092B0CD92A2AD0D1189B1A1D18921C6881
:1029300024EAE4730A930D9B01330D93C5E70DA8B8
:10294000FFF7C0F90A90C0E7682A14D06A2A24D198
:1029500045F4007501330D931FE045F480715A1C56
:102960000D925A786C2A01D00D4616E045F4407558
:1029700002330D9311E045F080015A1C0D925A78F4
:10298000682A01D00D4608E045F0C00502330D93DA
:1029900003E045F4807501330D930D9B187865288D
:1029A0003DD071D8462800F0878018D963282FD1F0
:1029B00015F0020500F0A48101241898031D189356
:1029C00006F1010A3B46324649460078C047002DD1
:1029D00040F099810D9B01330D93564621E7252840
:1029E0000AD1741C3B46324649462520C0470D9B00
:1029F00001330D93264614E7452810D0741C3B463E
:102A000032464946C0470D9B01330D93264608E7E1
:102A10002CD858282CD062282AD04728EED16728F5
:102A200001D0472801D145F40065452801D0472849
:102A300001D145F02005189B073323F0070303F16C
:102A4000080218920495CDF80CB00A9A0292D3E9C4
:102A50000023CDE900233B46324649464046FFF776
:102A6000EBFA06460D9B01330D93DAE66428C5D1D7
:102A700078284BD058287CD06F287CD062287CD016
:102A800025F010050A2342E0702800F0A4810ED939
:102A9000732834D1189B1A1D1892D3F800A00A9BF2
:102AA000002B40F05A814FF0FF3253463BE167283C
:102AB000B5D01FD86628A1D1462800F01181189BF7
:102AC000073323F0070303F1080218920495CDF8A9
:102AD0000CB00A9A0292D3E90023CDE900233B46C9
:102AE000324649464046FFF7C7FC06460D9B013378
:102AF0000D9396E66928BBD06F28B9D07EE7FFF426
:102B00007DAF7528B4D07828B2D077E71023582845
:102B100035D0692803D0642801D025F00C0515F4C0
:102B2000806F01D025F0010569282BD0642829D0B9
:102B300015F4007F40F0968015F4807F40F0AE8061
:102B400015F0400F00F0BF80189A111D18911278EF
:102B50000595CDF810B00A990391029300230193D3
:102B600000923B46324649464046FFF7B2F90646D8
:102B700029E01023CBE70823C9E70223C7E745F084
:102B80002005C6E715F4007F21D115F4807F42D1DE
:102B900015F0400F58D0189A111D1891127882EA3A
:102BA000E271A1EBE2710595CDF810B00A9803909F
:102BB0000293D20F019200913B463246494640466D
:102BC000FFF787F906460D9B01330D9329E6189A06
:102BD000073222F0070202F10801189151681268C9
:102BE0000846002913DB0895CDF81CB00A9C069412
:102BF000049300230593C90F0291009201903B4674
:102C0000324649464046FFF7B4F90646DBE75242F2
:102C100061EB4100E7E7189A111D1891126882EAEA
:102C2000E271A1EBE2710595CDF810B00A9803901E
:102C30000293D20F019200913B46324649464046EC
:102C4000FFF747F90646BEE715F0800F05D0189A42
:102C5000111D1891B2F90020A1E7189A111D1891C1
:102C600012689CE7189A073222F0070202F1080165
:102C700018910895CDF81CB00A990691002104938B
:102C800005910291D2E90023CDE900233B4632466B
:102C900049464046FFF76DF9064694E7189A111D1C
:102CA00018910595CDF810B00A990391029300236D
:102CB0000193136800933B46324649464046FFF76E
:102CC00008F906467FE715F0800F04D0189A111D09
:102CD000189112883CE7189A111D1891126837E76D
:102CE00045F02005EBE602F1010A3B46494620206B
:102CF000C047234652465C1C9B45F4D816465CE60A
:102D000001233246F7E7524606E0561C3B46494649
:102D10002020C0472C463246651CA345F5D8924674
:102D200058E601330A46197811B1511E002AF8D12C
:102D3000A3EB0A0315F480620B9203D00A9A934224
:102D400028BF134615F0020409D032460B9E0B949F
:102D5000CDF830B00A9D9B461FE00A9AA5E63246A0
:102D6000264606E0541C3B4649462020C0472B46D9
:102D700022465D1C9B45F5D834462B460B9E0B9492
:102D8000CDF830B00A9D9B4607E01D460AF1010AC6
:102D9000541C3B464946C04722469AF8000020B1E1
:102DA000002EF3D06B1E002DEFD116460B9C5B4618
:102DB000DDF830B054B90D9B01330D9331E5551C4E
:102DC0003B4649462020C04723462A465C1C9B457B
:102DD000F5D81646EFE745F02105189B1A1D189205
:102DE0001B680595082204920A9A03921022029207
:102DF0000022019200933B46324649464046FFF787
:102E000068F806460D9B01330D930AE5DFF81C8038
:102E100006E5BE4208D37A1E3B4649460020C0471D
:102E200030460FB0BDE8F08F3246F5E7B51C001014
:102E300000B585B002900391009313464FF0FF3226
:102E400002A90248FFF7E2FC05B000BDB71C001064
:102E500000BEFDE7704708B5FFF7FAFF00B583B085
:102E60008C46194662B19646074BCDF804E00093B4
:102E700063460246054800F04FF90120FFF7E8FFDE
:102E8000034B9E46F1E700BF94640010A464001059
:102E9000A064001010B5EFF30583DBB203B100BEF0
:102EA000FEF7AAFC044C02E054F8043B9847034B9D
:102EB0009C42F9D310BD00BF505D0010545D00105E
:102EC00008B5034608461B681146984708BD000030
:102ED000F8B507460D461646437D13B1002420463B
:102EE0000CE003681146284698472CE03B7D0FE034
:102EF0003B68022114489847601C0134B44213DA3D
:102F0000002CF3DD631EEB5C0D2B14BF00230123AB
:102F10002A5D0A2AF1D1002BEFD1A042E8DA3B6802
:102F2000211A28449847E3E7B04203DA3B68311A94
:102F300028449847002E06DD013EAB5D0D2B14BFE3
:102F4000002301233B75F8BD4869001038B50368BC
:102F5000B3B105460B4B1C6806E0294651F8042B1B
:102F60002046FFF7B5FF24694CB12368002BFAD047
:102F7000054B1B68002BF0D0A342F4D1EDE72C6089
:102F800038BD00BFE4130020EC13002008B50B6827
:102F90005A1C0A600B441871802A00D008BD0846EC
:102FA000FFF7D4FFFAE7000008B5FEF71BFA074A5F
:102FB000821841F10003002B03DB054802F09CFE60
:102FC00008BD4FF0FF326FF00043F6E740420F00BC
:102FD000040F002008B5024802F08AFE08BD00BFB9
:102FE000040F00202DE9F04383B006460D469046BD
:102FF0001C46FFF7D9FF8146B5F1FF3F04D044B12D
:10300000164F174B1C6807E0304602F027FE0546B6
:10301000F5E7144FF5E72469BCB12368002BFAD01B
:10302000114B1B680BB1A342F5D12A46314620460D
:10303000B847B8F1000FEED00A238DF8073001220F
:103040000DF107012046B847E5E74B461BB9284676
:1030500003B0BDE8F083FFF7BDFFF8E7D12E001005
:10306000E4130020C12E0010EC130020084A13685E
:1030700002E003F110021B693BB113688342F8D1EF
:1030800029B9036913600161704701B1106070478D
:10309000E413002010B5054B1C6800E0246924B13E
:1030A0006368002BFAD09847F8E710BDE4130020BE
:1030B00008B500F03BF908BD38B5054602F0CEFD75
:1030C000044601231A4601462846FFF78BFFFFF707
:1030D000E1FF204638BD0000F0B5A3B007460E461C
:1030E000FFF762FF05460023019301AC33463A46E1
:1030F00021460848FFF79CFE06462046FFF726FFBC
:10310000FFF7C8FF15B9304623B0F0BDFFF762FFE7
:10311000F9E700BF8D2F00100FB400B583B004A9EC
:1031200051F8040B0191FFF7D7FF03B05DF804EBF2
:1031300004B07047024B1860024B1960704700BF23
:10314000841300208813002008B5FEF74BF90E4ABF
:10315000821841F10003002B11DB0C4802F0CCFD7A
:1031600060B100214FF0FF3001F0FEFA002001F0C5
:10317000FBFD0028F5D1054802F0BAFD08BD4FF06F
:10318000FF326FF00043E8E740420F0028180020AC
:1031900038B51B4B1B68002B27D0EFF3108272B69B
:1031A000D3E8CF0F01210028FAD1C3E8401F00283F
:1031B000F6D1BFF35F8F12494A60002311480370B4
:1031C0000968C1E88F3F82F310880022002314466B
:1031D0001D460D4B1878FDF757FA60B90022002301
:1031E00014461D462046294638BD4FF47A72002306
:1031F00014461D46EDE7044B1878FDF76FFAF1E72A
:10320000F8170020481800204718002008B5024B86
:103210001878FDF763FA08BD4718002070B584B030
:10322000064615461C46FEF7DDF82A1844EB010356
:10323000002B0BDB9DF82810029109990191089948
:1032400000913046FDF728FF04B070BD4FF0FF320B
:103250006FF00043EEE7F0B585B007460E46154621
:103260001C46FDF7A5FE9DF82830029301940095B9
:103270003A463346FFF7D2FF05B0F0BD10B582B035
:103280000021244802F01CFD002822D1224B1B689B
:10329000EBB1EFF3108272B6D3E8CF0F0121002813
:1032A000FAD1C3E8401F0028F6D1BFF35F8F1A4957
:1032B0004A601A480378DBB24FF0010C80F800C076
:1032C00008680021C0E88F1F82F31088BBB102B0EC
:1032D00010BD00214FF0FF3001F046FA002001F050
:1032E0001DFD04460B4802F003FD002CEFD00C4BF3
:1032F0001B68002BEBD00B4A10689847E7E7CDF826
:1033000000C00B46084A4FF47A700021FFF7A3FF74
:10331000DDE700BF28180020F8170020481800201B
:1033200084130020881300209131001010B582B062
:103330004FF050431C68FDF73BFEFDF71DFFA04218
:103340002DD1244B1B780021084602F007F8224BB0
:103350001B6853B30120FDF7ADFBC0B21F4C2070BA
:103360001F49FDF7DBF901212078FDF7ADF90E20AB
:10337000FDF7C8F90446E0B10120FDF7FDF801466C
:103380001848FDF7F3FB002217490E20FDF7F8F966
:1033900001211648FFF76AFE204602B010BD144B0B
:1033A000144AC8211448FFF759FD0B48FDF79CFB50
:1033B000D0E70C4A034610605060012200920F4A89
:1033C0004FF47A700021FFF746FFC443E40F002C4E
:1033D000E2D0DDE7F86C0010281800204718002024
:1033E0007D320010F81700200D320010CC0E0020A6
:1033F000D464001058690010DC6400109131001092
:1034000008B5002001F070FC08BD000038B5044686
:103410000D46FFF7F5FFA0B3002001F07FFCA0B33D
:10342000FDF7E0FF1D4A821841F10003002B17DB76
:103430001B4802F061FC60B3FFF7E2FF18B1002007
:1034400001F06CFC88B901464FF0FF3001F08CF9B7
:103450006FF002031C46124802F04AFC204638BDB9
:103460004FF0FF326FF00043E2E72A46214600208A
:1034700001F060FC04460028EDD16FF002031C4609
:10348000E9E76FF002031C46E8E76FF002031C4611
:10349000E4E76FF002031C46E0E700BF40420F0084
:1034A00028180020F8B507460D46FDF79BFF2E4A69
:1034B000821841F10003002B04DB2C4802F01CFCB5
:1034C00028B9F8BD4FF0FF326FF00043F5E7FFF782
:1034D00097FF002845D1264B00200021C3E90001B9
:1034E000224802F005FCECE701464FF0FF3001F006
:1034F0003BF9002001F038FCFFF782FF0028EFD0F5
:10350000002001F0AFFCF8B1AC42E9DA2E1B00203C
:1035100001F0A8FC864200DC30460028E4D00246D8
:103520003919002001F07CFC064600214FF0FF30E5
:1035300001F01AF9002001F017FC3444FDF752FFA6
:103540000B4BC3E90001DFE7FDF74CFF084A1368A6
:103550005268084E9B1942F1000283428A41D3D23D
:10356000BEE70024D0E700BF40420F00281800202B
:103570009010002020A1070000487047D469001077
:10358000004870478069001010B50446144B1B7842
:103590006BB18CB9134B40F209425A8001230133BD
:1035A0005B009BB20F4843F44073038010BD1121B0
:1035B0000B4800F045F8ECE7052C0ED80A4B53F801
:1035C00024000023122BEAD8C25C002AE7D0013382
:1035D000044921F81320DBB2F4E70020E6E700BF3E
:1035E00030180020BC1300206869001000B58BB0B3
:1035F00045F24730FEF791F803460122092101A860
:103600009847042801D100230EE0094B094A2F21D5
:103610000948FFF723FCC3F10F0228326A4412F86D
:10362000241C064AD1540133072BF4DD0BB000BD36
:1036300068650010086A00107065001020180020EE
:1036400008B511B18C46002208E0104B104A3B210E
:103650001048FFF703FC3733835401320CF1FF337A
:1036600093420FD90F2A0DD853080B49CB5CD14395
:1036700001F0010189000B4103F00F03092BEADC83
:103680003033E9E70023835408BD00BFBC65001058
:10369000E8690010706500102018002070470000D5
:1036A000014B00221A707047451800204B79FF2B00
:1036B0000BD18B795BB9CB79012B0AD1082A0AD9B6
:1036C0008A78064B1A700920704700207047002046
:1036D0007047002070470020704700BF4518002049
:1036E00001207047012924D108B59188124B1B781D
:1036F000994201D0002008BD5378012B03D0022B42
:1037000010D00020F7E7518811F4807F06D0C1F374
:10371000C012480A01F00301FEF70EF800224FF034
:10372000FF30F7E7642200210846FDF79FFF0120E4
:10373000E1E70120704700BF4518002000487047AE
:10374000CC6A001001290FD108B594465378012B9B
:103750000CD19388072B01D0002008E0A623044A4F
:10376000614601F075F902E001207047002008BDB4
:10377000246A00100123037000487047F06A0010AB
:1037800008B50B68B3F5966F00D008BD002211464E
:103790004FF0FF30FDF7D0FF00B500F07F0C4FEA8F
:1037A0004C0E0EEBD01E2A4B03EB4E139870C00943
:1037B0000CBF4FF0010E4FF0000E83F801E04FF008
:1037C000000E83F803E01983DA76F0B94FEACC03F0
:1037D000204A1A4400EB4C011D4B03EB41139A6045
:1037E00000EB4C021A4B03EB42139B6800221A6059
:1037F000BCF1000F13D100EB4C00154B03EB401054
:10380000C0F804C0144BC36000BD144A02EBCC02E4
:1038100000EB4C010E4B03EB41139A60E0E758B903
:103820000CF1FF33DB000E4A1A4400EB4C00084B4E
:1038300003EB40135A60E7E70CF1FF33094A02EB50
:10384000C30200EB4C00024B03EB40104260DBE78D
:10385000F013002084001050000110508000105020
:103860000C0010500800105008B5038B3F339B0923
:103870009901C27E022A08D0084A1368C3600B442B
:103880001360074A934202D808BDD901F4E7054BFB
:10389000054A52210548FFF7E1FA00BFF41700205E
:1038A000FF0F1050C4650010406B00100866001038
:1038B00070B500F07F044FEA440C0CEBD013DFF836
:1038C00034C00CEB43131E46FFF766FF04B970BD0E
:1038D000318B3046FFF7C8FFF27EF36883F0A043D8
:1038E00083F4801343EA826343F0004372681360F9
:1038F000EDE700BFF013002008B500F07F035B0088
:1039000003EBD010024B03EB401000F01DF908BD93
:10391000F013002008B520B901210E20FCF7D4FED9
:1039200008BD034B034A40F297110348FFF796FA8C
:1039300078660010306B00100866001008B528B9D2
:10394000024601468020FFF7D7FF08BD034B044A1B
:1039500040F2A1110348FFF781FA00BF786600101A
:10396000206B001008660010024B4FF48032DA64BE
:10397000704700BF0020115070B548BB064600F0EC
:10398000C3F8174C0C23A367FF2216490E20FCF73F
:10399000F7FE40252A460021134802F0A5F8002230
:1039A00029461046FFF784FF002229468020FFF7B2
:1039B0007FFF02F0A9F9012525644FF00053E3646D
:1039C0000A4BC4F890303046FFF7CEFF284670BD52
:1039D000074B084A40F263110748FFF73FFA00BF60
:1039E00000001150E9030020F013002010D0010066
:1039F00078660010546B001008660010044B1970B4
:103A000021B1044B4FF40032C3F89020704700BF3F
:103A100042180020002011500B7813F01F0F05D121
:103A200013F0600F02D14B78052B00D070474B8804
:103A3000DBB2014A1360F9E700001150CA7802F0C6
:103A40000302012A09D008B50B468988C1F30A018F
:103A50009878FFF72DFF012008BD0020704708B5BA
:103A600002F052F908BD000008B530B90846114609
:103A70001A46FFF741FF012008BD034B034A4FF4EC
:103A800001710348FFF7EAF978660010106B001027
:103A90000866001008B511F07F0304D1CA090ED1E1
:103AA0000220084A90665B0003EBD1134FF40062DA
:103AB0000021054800EB431002F016F908BD012073
:103AC000EFE700BF00201150F013002008B511F0FF
:103AD0007F0300D108BD5B0003EBD113044800EB6A
:103AE00043100022C2706FF4006102F0FDF8F1E7AC
:103AF000F013002004E011F8012B00F8012B1A4606
:103B0000531E002AF7D1704708B54FF080530A4A78
:103B1000136002F580521360084B9B6813F0805FBE
:103B2000FAD04FF480520021054801F0DDFF054B2B
:103B300009225A6708BD00BF002002400000024071
:103B4000000010500000115070B504460D46164696
:103B5000837EABB9A6820023E3820123A37625618D
:103B6000204602F0CDF820B10B4B4FF40032C3F8E1
:103B70009020204602F0B4F850B10123237770BDA5
:103B800081780648FFF7C8FA204602F0A1F8E1E77D
:103B9000204602F099F8F2E7002011506867001003
:103BA00038B50546002408E0E31A1A4A02EB43132D
:103BB000DB68284698470134E4B2174B1B78A342D0
:103BC00015D3A342F0D9154B1B6813EB4413EFD167
:103BD00040F2252212491348FFF79EFA4FF0E023E6
:103BE000D3F8F03D13F0010F13D000BE11E00E4CDE
:103BF00054220021204601F077FF4FF0FF3363602D
:103C0000A360E36023612022FF2104F1140001F08E
:103C10006BFF38BD286C0010411800209810002060
:103C2000F46B0010A06700106812002008B5FFF7C1
:103C3000B7FF00F065FF08BD70B506460C46154697
:103C4000486900F067FF63692A46012130469847BA
:103C500070BD00002DE9F04F83B08146481EC0B210
:103C6000FFF78EFC20B1824643780193022B11D0DE
:103C700040F2D6325F496048FFF74EFA4FF0E0233A
:103C8000D3F8F03D13F0010F00D000BE002003B0C8
:103C9000BDE8F08FC279C2F34010584B197860F339
:103CA00004111970C2F38012C9B262F34511197080
:103CB0000AF10908BAF802309A4477E098F803B09C
:103CC00098F80030984479E040F2F13249494A4886
:103CD000FFF722FA4FF0E023D3F8F03D13F0010F85
:103CE00000D000BE0020D2E7E31A454D05EB431596
:103CF0002B693A464146484698470646082801D966
:103D000087421CD20134E4B23E4B1B78A34249D314
:103D1000A342E9D93C4B1D6815EB4415E8D140F2AC
:103D2000FA3234493448FFF7F7F94FF0E023D3F87B
:103D3000F03D13F0010F00D000BE0020A7E7BBF15B
:103D4000010F11D00022934525D998F80230134471
:103D5000DBB22A4919440979FF290CD127490B44C0
:103D60001C710132D2B2EEE72A69284B9A42E9D19E
:103D7000DDF804B0E6E740F219421E491E48FFF79D
:103D8000CBF94FF0E023D3F8F03D13F0010F00D052
:103D900000BE00207BE72346324641461C4801F026
:103DA000F3FBB044174B1B78A34210D3D0451ED26F
:103DB00098F801300B2B81D04FF0010B98F80130AF
:103DC000042B81D1AAEB0807BFB200249CE74FF473
:103DD000856208490848FFF79FF94FF0E023D3F8C0
:103DE000F03D13F0010F00D000BE00204FE701208E
:103DF0004DE700BFC86B0010A067001068120020DC
:103E0000286C00104118002098100020D14F00109D
:103E10007C120020704770470020704700207047D8
:103E200038B505460C464B881A0A062A61D0114659
:103E3000D8B211D8022A2FD0032A4ED0012A09D194
:103E4000FFF79AFB0246B8B112232146284600F03C
:103E5000FFFD2CE000202AE0072A1DD00F2A09D1FF
:103E6000FFF76CFC024610B343882146284600F059
:103E7000EFFD1CE000201AE040F23A4222492348BC
:103E8000FFF74AF94FF0E023D3F8F03D13F0010FAC
:103E900000D000BE00200AE0022909D0FFF7BEFFD3
:103EA000024620B153882146284600F0D1FD38BD96
:103EB000FFF766FB02460028F4D140F26142124946
:103EC0001248FFF729F94FF0E023D3F8F03D13F043
:103ED000010F00D000BE0020E9E7A188FFF754FBE6
:103EE00002460028E3D003782146284600F0B0FDC2
:103EF000DDE7FFF791FF02460028D8D0037821467E
:103F0000284600F0A5FDD2E7B06B0010A0670010B6
:103F10007047704770477047024B5878003818BF99
:103F20000120704768120020024B1878C0F380000F
:103F3000704700BF68120020024B1878FF3818BF86
:103F400001207047000F0020F8B506460C460F46CA
:103F5000FFF7F2FF0546002852D104B35422002196
:103F6000364801F0C1FD364B00221A70354C204610
:103F7000FCF7BAFD344B1C60344C2046FCF7FEFDC8
:103F8000143C204601F078FD314B1C60314B23B1CD
:103F90003148FFF7EFFB314B1860002417E04FF476
:103FA000E9722F492F48FFF7B7F84FF0E023D3F815
:103FB000F03D13F0010F23D000BE21E0E31A2A4A9E
:103FC00002EB43135B686BB198470134E4B2224BB8
:103FD0001B78A34216D3A342F0D9204B1B6813EBE6
:103FE0004413EFD14FF4F8721D491E48FFF794F8BF
:103FF0004FF0E023D3F8F03D13F0010F00D000BEE6
:104000002846F8BD194B1E7039463046FFF7B4FC00
:10401000054618B13046FFF77DFCF1E74FF4FC721E
:104020000F491048FFF778F84FF0E023D3F8F03D40
:1040300013F0010FE4D000BEE2E700BF68120020D9
:104040004318002060120020BC120020F80E00204F
:10405000C012002075370010411800209810002071
:10406000186C0010A0670010286C0010000F0020D2
:1040700070B51B4B1B781E468B7813F0700F0ED15A
:104080000C46184B9978204601F00EFA0546B8B157
:1040900021463046FFF7D2FC0546284670BD40F267
:1040A0000B5211491148FFF737F84FF0E023D3F8CE
:1040B000F03D13F0010F00D000BE00231D46ECE7D9
:1040C00040F20C5208490948FFF726F84FF0E02368
:1040D000D3F8F03D13F0010FDFD000BEDDE700BFE5
:1040E000000F002068120020806B0010A0670010F5
:1040F0002DE9F04780460C4616461F46DDF8209015
:10410000002526E040F2E7421F492048FFF704F867
:104110004FF0E023D3F8F03D13F0010F00D000BEC4
:104120004FF0000A5046BDE8F0874FF49D621649F3
:104130001648FEF7F1FF4FF0E023D3F8F03D13F0FF
:10414000010FEFD000BEEDE7099A137023781C44ED
:104150000135AE4214DD6378052BD3D1E17801F04F
:104160000301B942CED121464046FFF781FF824686
:104170000028DAD0A378DA09E6D189F80030E5E73B
:104180004FF0010ACEE700BF906B0010A06700104F
:1041900008B501F07F00400000EBD1103030044B37
:1041A0001844044B1968043001F030F908BD00BF11
:1041B00068120020BC12002008B501F07F0040000A
:1041C00000EBD1103030044B1844044B1968043014
:1041D00001F047F908BD00BF68120020BC120020A2
:1041E00038B52448007801F07F04DFF88CC00CEB70
:1041F000440C0CEBD11C0CF1300C9CF804C01CF0EE
:10420000010F27D1CD09DFF870C00CEB440CAC4492
:104210009CF834E04EF0010E8CF834E0FFF724FCFB
:1042200038BB154B03EB44032B4493F8342022F0A6
:10423000010283F8342093F8342022F0040283F83A
:1042400034204FF0E023D3F8F03D13F0010F10D0ED
:1042500000BE0EE040F2395208490948FEF75CFF03
:104260004FF0E023D3F8F03D13F0010F00D000BE73
:10427000002038BD000F002068120020706B001075
:10428000A067001038B501F07F05CC090A4B1878FB
:10429000FFF700FC094B03EB4503234493F834205C
:1042A00042F0020283F8342093F8342042F00102F5
:1042B00083F8342038BD00BF000F002068120020B2
:1042C00038B501F07F05CC090A4B1878FFF7FEFBE3
:1042D000094B03EB4503234493F8342022F00202F8
:1042E00083F8342093F8342022F0010283F834203C
:1042F00038BD00BF000F00206812002001F07F02CF
:10430000044B03EB420303EBD11191F83400C0F3EB
:1043100040007047681200202DE9F04182B0074646
:104320000C46002000F0F6FB237803F06003602BBE
:1043300032D0402B44D0227802F01F02012A00F034
:104340001181022A00F05481002A40F0E181202BE3
:1043500040D0002B60D16378052B75D067D8012B36
:1043600000F0E280032B00F0CD80002B40F0EE80C7
:10437000B04B1A78930803F00203C2F340121343C0
:10438000ADF8063002230DF106022146384600F052
:104390005FFB01231D460FE04FF43572A649A74885
:1043A000FEF7BAFE4FF0E023D3F8F03D13F0010F13
:1043B00000D000BE00231D46284602B0BDE8F081B3
:1043C0009F4800F0A7FB224601213846FFF7BAF9C3
:1043D0000546F1E7A388DAB20F2A00F2A481954AD4
:1043E00052FA83F31B79974A1278934207D2964A7E
:1043F000116811EB431109D100231D46DCE79342FC
:1044000000F294819B1A914901EB431122463846F0
:10441000FFF712FC0546CFE74FF0E023D3F8F03D5D
:1044200013F0010F00D000BE00231D46C4E7082B87
:104430001AD0092B26D0062B40F08880214638461A
:10444000FFF7EEFC0546B7E7204600F069FB618800
:10445000C9B23846FFF772FA764A137843F002037E
:10446000137001231D46A7E7724B5B788DF8063069
:1044700001230DF106022146384600F0E9FA012336
:104480001D4699E76388DAB290466A4B5B7893429F
:1044900031D0684B5B7863B9664B414683F8018045
:1044A00039B33846FFF7D6FB054680B1FFF730FD3C
:1044B00021E000213846FFF7A1FA3846FFF7CFFA8E
:1044C0005C4DAE783846FFF76BFBAE70E4E74FF417
:1044D000497259495948FEF71FFE4FF0E023D3F8BF
:1044E000F03D13F0010F00D000BE524B00225A7075
:1044F00062E7FFF70EFD2146384600F095FA0123EA
:104500001D4659E76388012B02D000231D4653E75F
:10451000484A137843F0080313702146384600F0E8
:1045200083FA01231D4647E76388012B02D000234D
:104530001D4641E73F4A137823F0080313702146D4
:10454000384600F071FA01231D4635E74FF0E023AD
:10455000D3F8F03D13F0010F00F0EB8000BE002314
:104560001D4629E7A388DAB20F2A00F2E580314A16
:1045700052FA83F31B79334A1278934223D2324A98
:10458000116811EB431100F0DA8022463846FFF73C
:1045900053FB054600287FF40FAF237813F0600F1C
:1045A0007FF40AAF63780A3B012B3FF605AF00F0BA
:1045B000B1FA63780A2B0ED02146384600F034FA5F
:1045C00001231D46F8E6934200F2BC809B1A1F4966
:1045D00001EB4311D9E700238DF8063001230DF1DB
:1045E00006022146384600F033FA01231D46E3E671
:1045F000A288D1B202F07F0CC2F3C01012F0700F8B
:1046000026D10C4A02EB4C020244127D0D48007880
:1046100082422ED20C48006800EB421215469BB332
:104620002946002D3FF4C8AE22463846FFF704FB6A
:104630000546C1E668120020DC6B0010A067001080
:10464000453700104118002098100020286C0010F9
:1046500040F2953240494148FEF75EFD4FF0E023BD
:10466000D3F8F03D13F0010F00D000BE00231D462B
:10467000A2E6824205D8121A394800EB42121546CA
:10468000CDE700221546CAE76378012B11D0032B32
:104690000FD093BB3846FFF731FEADF8060002237A
:1046A0000DF106022146384600F0D2F901231D46DD
:1046B00082E6628822B9012B1BD03846FFF7E2FD63
:1046C000002D42D0224629463846FFF7B5FA002091
:1046D00000F020FA234B93F8353013F001031D4608
:1046E0007FF46AAE2146384600F09EF901231D464C
:1046F00062E63846FFF7E4FDE2E74FF0E023D3F847
:10470000F03D13F0010F00D000BE00231D4653E61C
:104710004FF0E023D3F8F03D13F0010F18D000BEA6
:1047200000231D4648E600231D4645E600231D469E
:1047300042E600231D463FE600231D463CE60023DB
:104740001D4639E600231D4636E601231D4633E6A5
:1047500000231D4630E600BFDC6B0010A067001090
:10476000286C00106812002010B584B0FFF7E4FB3D
:1047700000285AD104B010BD042B40F0FF80844BB8
:104780001B7813F0010F50D0814B1878C0F3C00094
:10479000FFF7C0FB49E0072B00F08A80082B00F0F0
:1047A000DC80062B40F0EA807A4B1B78002B6FD020
:1047B000784A1378013BDBB213701378ABBB744BB0
:1047C0001A7842F001021A7093F8342022F00102A4
:1047D00083F8342093F8342022F0040283F8342044
:1047E00093F8352022F0010283F8352093F8352024
:1047F00022F0040283F8352002A99DF80400FFF797
:104800008BFD90B901469DF80400FFF743F9802124
:104810009DF80400FFF73EF907E09DF80400FFF75C
:1048200005FA9DF808205A4B9A705B4B1C68636927
:10483000EFF3108272B6D3E8CF0F01210028FAD12E
:10484000C3E8401F0028F6D1BFF35F8FA26101A922
:10485000204601F0B6F86169A3690022C1E88F2FF4
:1048600083F31088002885D09DF80530052B6BD088
:1048700091D8032B78D03FF67FAF012BCDD0022B00
:104880007CD19DF80400FFF7D1F9FFF742FBCCE79C
:1048900040F2652241494248FEF73EFC4FF0E023DA
:1048A000D3F8F03D13F0010F3FF464AF00BE61E7B1
:1048B0009DF8081001F07F00CC09354B03EB400355
:1048C00003EBD11393F8342022F0010283F8342053
:1048D00093F8342022F0040283F83420A8B12C4B42
:1048E00003EB400323441B7D2E4A1278934214D2DB
:1048F0002D4A126812EB431316D09C69039B9DF856
:1049000009209DF80400A0478FE7039B9DF809202C
:104910009DF8040000F012F987E7934204D89B1A2F
:10492000224A02EB4313E8E74FF424721B491C4868
:10493000FEF7F2FB4FF0E023D3F8F03D13F0010F48
:104940003FF418AF00BE15E7114B1B7813F0010FB1
:104950003FF46BAFFFF7DFFA67E7029B002B3FF4F2
:1049600064AF0398984760E7094BDB7813F0010FB9
:104970003FF45BAF0298FFF74EFA56E74FF0E023A3
:10498000D3F8F03D13F0010F3FF44FAF00BE4CE7FA
:104990006812002043180020C0120020086C00108C
:1049A000A06700104118002098100020286C00100B
:1049B00008B591F90030002B05DB802100231A4651
:1049C000FFF70EFC08BD0021F8E70000F8B5074628
:1049D000134B9E89DD89741BA4B2402C28BF402450
:1049E00093F90030002B08DB0021AE4213D00D4AB2
:1049F00023463846FFF7F4FBF8BDAE4209D0084B1A
:104A00009968402C09D82246064801F0B1F8802167
:104A1000EBE78021E9E70022EAE70020ECE700BFAE
:104A200028120020E811002008B586460B46074AE8
:104A3000944608684968ACE8030000219160D18180
:104A4000918119467046FFF7B3FF08BD2812002078
:104A500038B505468C461446264A96460868496885
:104A6000AEE8030094600021D181BCF806108B42AF
:104A700028BF0B469381BCF8062032B303B134B192
:104A80002846FFF7A3FF044688B1204638BD7222AE
:104A900019491A48FEF740FB4FF0E023D3F8F03DE8
:104AA00013F0010F00D000BE00231C46EDE7742276
:104AB00011491248FEF730FB4FF0E023D3F8F03DE8
:104AC00013F0010FE1D000BEDFE761462846FFF793
:104AD0006FFF04460028D8D1762207490748FEF721
:104AE0001BFB4FF0E023D3F8F03D13F0010FCCD0C7
:104AF00000BECAE728120020606C0010A0670010FA
:104B0000034B00221A605A609A60DA601A6170479B
:104B100028120020014B1861704700BF28120020A6
:104B20000146054B1A460068496803C200229A6094
:104B3000DA819A81704700BF2812002038B50446F8
:104B40001A461D463E4B1B78DB09B3EBD11F1ED026
:104B500082B19D223B493C48FEF7DEFA4FF0E0234C
:104B6000D3F8F03D13F0010F00D000BE00231C4627
:104B7000204638BD3249FEF74FFF314B1B691BB150
:104B80002F4A03212046984701231C46F0E72C4B6F
:104B900093F90030002B06DB294B986800284CD095
:104BA0002A4900F0E5FF264AD38913FA85F39BB220
:104BB000D381916829449160D288934201D03F2DDE
:104BC00027D81F4B1B6923B11D4A02212046984755
:104BD000A0B11B492046FFF7EBFE04460028C7D1D1
:104BE000C52218491848FEF797FA4FF0E023D3F88A
:104BF000F03D13F0010FBBD000BEB9E701462046DF
:104C0000FEF748FF80212046FEF744FF01231C46A3
:104C1000AEE72046FFF7DAFE04460028A8D1CD22F1
:104C200008490948FEF778FA4FF0E023D3F8F03D41
:104C300013F0010F9CD000BE9AE7044698E700BF2E
:104C400028120020486C0010A0670010E811002016
:104C500070B50446FFF760F918B900231E463046C8
:104C600070BDFFF761F906460028F6D11C4BC8223B
:104C700002FB0433DB78002BEFD0C82304FB03F3E3
:104C80001033174A13441D46184600F084FE3F288F
:104C9000E5D9134BC82202FB0433D9780020FFF773
:104CA00077FA08B90646DAE7284600F074FE3F288E
:104CB0000DD90B49C82303FB04114023094A02EB19
:104CC000C412C9780020FFF78BFA0646C7E7044BE9
:104CD000C82202FB0433D9780020FFF76DFABEE743
:104CE000201100209C10002010B50446FFF714F995
:104CF00000B910BDFFF718F948B9074BC82202FBED
:104D000004331B7913F0010F03D00120F1E70020D9
:104D1000EFE70020EDE700BF2011002008B5C82311
:104D200003FB00F01030024B184400F003FE08BDF6
:104D30002011002038B50446C82300FB03F31033CC
:104D4000084818444FF6FE739A4208D892B200F011
:104D500057FE05462046FFF77BFF284638BD4FF635
:104D6000FF72F4E72011002070B50446FFF7D4F875
:104D700008B9002070BDFFF7D7F80028F9D1C82383
:104D800004FB03F32033224A134404331E4618461F
:104D900000F0D0FD0028EDD01D4BC82202FB0433EB
:104DA00099780020FFF7F4F90028E3D0E3014033BD
:104DB000184A13441D4640221946304600F020FE92
:104DC0000646D8B11249C82303FB041103462A46FC
:104DD00089780020FFF704FA08B13046CAE7D522E7
:104DE0000D490E48FEF798F94FF0E023D3F8F03D57
:104DF00013F0010F00D000BE0020BBE7044BC82217
:104E000002FB04339978FFF7D7F90020B2E700BF1F
:104E1000201100209C100020906C0010A067001052
:104E200070B50646C82400FB04F420340C4B1C4427
:104E300004344FF6FE739A420BD892B2204600F02B
:104E400016FE0546204600F075FD3F2804D828468A
:104E500070BD4FF6FF72F1E73046FFF785FFF6E7CA
:104E60002011002008B5C82303FB00F02030034BBD
:104E70001844043000F08FFD08BD00BF2011002051
:104E80002DE9F04383B0C8220021214800F02CFE18
:104E90000025204B1D7015B103B0BDE8F0831C4FF9
:104EA000C82405FB04F43E19FF2373714FF4E1336A
:104EB000B360357375730823B37304F1380104F1DB
:104EC00010000095012340223944384400F001FDD0
:104ED00004F1780104F120003844012300934022BA
:104EE0003944043000F0F5FC04F1B809B9444846EF
:104EF000FBF7FAFDC0343C442046FBF7F5FDF561B5
:104F0000C6F82090346375630135EDB2C3E700BF86
:104F1000201100201C11002000230BB1012070473C
:104F20009C460C4AC82101FB0322116A106B29B16F
:104F3000084AC82101FB0322D361136230B1054A3C
:104F4000C82101FB0C220021116351630133DBB244
:104F5000E3E700BF2011002038B5002404B138BDBC
:104F60002546C82304FB03F317495818CC50047195
:104F7000164B1B7813F0010F12D0144B1B7813F053
:104F8000020F16D0C823284603FB00F020300E4B3A
:104F900018440121043000F08AFD0134E4B2DDE759
:104FA000C82304FB03F310330846184400F064FDE3
:104FB000E3E7C82005FB00F02030034B1844043021
:104FC00000F05AFDDEE700BF201100201C11002078
:104FD0002DE9F04182B04B79022B40F081800746E9
:104FE0008B79022B40F0818000231E463EB19EB992
:104FF0008B7888F800300B78CC18092520E0C82081
:105000003B4B00FB063398469B78002BEFD0334692
:105010000133DBB21E46E9E740F24112354936481A
:10502000FEF77AF84FF0E023D3F8F03D13F0010FCC
:1050300000D000BE002554E023781D44ADB21C44CE
:105040006378242B01D19542F6D9052B09D06378DA
:10505000042B02D163790A2B20D03046FFF7F8FDEC
:105060003FE021463846FFF703F838B1A37888F8C7
:10507000013023781D44ADB21C44E8E740F25312DE
:105080001C491D48FEF748F84FF0E023D3F8F03DE7
:1050900013F0010F00D000BE002522E021780D445E
:1050A000ADB24246931C0193D31C009302231A46CF
:1050B00021443846FFF71CF810B10E35ADB2CCE7ED
:1050C0004FF4B1720B490C48FEF726F84FF0E0237D
:1050D000D3F8F03D13F0010F00D000BE002500E032
:1050E0000025284602B0BDE8F0810025F9E700BFA1
:1050F00020110020846C0010A0670010137803F0CA
:105100006003202B7CD170B59446002474B1002C30
:1051100078D19CF80130222B42D017D8202B1FD0F9
:10512000212B11D1012933D001206CE0C82304FBCD
:1051300003F3384A03EB020ED25CBCF804309A4207
:10514000E5D00134E4B2E1E720465CE0232B05D151
:10515000012947D003294AD0012054E0002052E021
:10516000012903D0032909D001204CE007230EF1C7
:1051700008026146FFF76CFC012044E0264B002B3F
:1051800042D00EF108012046FEF7FAFA01203AE07B
:1051900007230EF108026146FFF75AFC012032E0B6
:1051A000012903D0032906D001202CE06146FFF736
:1051B0003BFC012027E0BCF8023003F00105C3F3FB
:1051C00040068EF8043085F001010EF1240000F055
:1051D0006EFC124BD3B1324629462046AFF3008015
:1051E000012010E06146FFF71FFC01200BE00C4B93
:1051F00073B1BCF802102046AFF30080012002E03A
:1052000000207047002070BD0120FCE70120FAE774
:105210000120F8E720110020813700100000000075
:10522000000000002DE9F84F82460D469846002404
:105230005CB1BCB9A146F378AB4223D0B378AB42A2
:1052400054D001242046BDE8F88FC8233C4E03FB10
:105250000466F378AB42ECD0B378AB42E9D00134CA
:10526000E4B2E5E74FF4E67236493748FDF754FFFC
:105270004FF0E023D3F8F03D13F0010F00D000BE53
:105280000024DFE706F110039B461FFA88F22F493E
:1052900001EBC411184600F0EAFB2D4BC3B1737942
:1052A000FF2B15D0002700E00137474510D2727957
:1052B000264B03EBC913DB5D9A42F5D1584600F04B
:1052C0004DFB0028F0D171792046AFF30080EBE769
:1052D000204B1BB1584600F041FB18B12046FFF7A8
:1052E000B7FCABE72046AFF30080F7E71A4B13B1EA
:1052F0002046AFF300802046FFF736FD08B10124B9
:10530000A0E706F1240000F015FBA8B94346ABB1B5
:1053100018F03F0F01D0012494E7B1785046FEF712
:1053200037FF044608B901248CE700231A46B178F8
:105330005046FEF755FF85E7012483E7012481E706
:1053400020110020746C0010A06700109C10002039
:1053500000000000000000000000000010B582B056
:1053600059B10A46012825D80B781BB324490B54A0
:10537000012B31D001231C462BE001238DF8043092
:1053800008468DF8051001A9FEF7DEFD044618B1A8
:105390001B4B01221A701CE047221A491A48FDF7DC
:1053A000BBFE4FF0E023D3F8F03D13F0010F10D017
:1053B00000BE0EE05A2213491348FDF7ADFE4FF030
:1053C000E023D3F8F03D13F0010F00D000BE00231E
:1053D0001C46204602B010BD1146FEF7B5FD04463E
:1053E0000028F6D15F2207490748FDF795FE4FF0E8
:1053F000E023D3F8F03D13F0010FEAD000BEE8E758
:105400005C120020BC6C0010A067001070B5044650
:10541000037813F0010022D18C460D462378C3F3A4
:105420008002164613F0040F1AD14FF0FF31604688
:1054300000F052FC237813F0010309D1227812F016
:10544000040F0AD1237843F00403237001231E467E
:10545000284600F04DFC304602E01E46F8E70020EA
:1054600070BD70B5044606460A460D464FF0FF3142
:10547000104600F031FC2378C3F38002144613F089
:10548000040F04D1284600F033FC204670BD337869
:1054900013F0010F04D1337823F004033370F1E7E4
:1054A00000231C46EEE7000008B58388C3F30A0218
:1054B000C37803F00303022B1DD0032B44D0012B30
:1054C0005BD1022905D040F2FF33934204D301207F
:1054D00054E04FF48063F8E7D12229492948FDF7C9
:1054E0001BFE4FF0E023D3F8F03D13F0010F00D086
:1054F00000BE002042E0022903D0402A15D8012036
:105500003CE0B2F5007F01D1012037E0D8221C49F0
:105510001C48FDF701FE4FF0E023D3F8F03D13F0F7
:10552000010F00D000BE002028E0DB2214491548FE
:10553000FDF7F2FD4FF0E023D3F8F03D13F0010F3B
:1055400000D000BE002019E0022904D0402393427D
:1055500004D3012012E04FF48063F8E7E122084908
:105560000848FDF7D9FD4FF0E023D3F8F03D13F0E4
:10557000010F00D000BE002000E0002008BD00BFE9
:10558000A86C0010A06700100A4403E000BD91F869
:1055900000C0614491421AD291F801C0BCF1050FDC
:1055A000F5D100B591F802C00CF07F0E00EB4E0E65
:1055B0004FEADC1C0EF80C3091F800C061449142B7
:1055C000E4D291F801C0BCF1050FF5D1EAE77047CC
:1055D00003460A4490B2814202D8B0EB430F03DB8A
:1055E0005B009BB2C01A80B2704710B50C46B0F891
:1055F00004C09A420DD3A2EB030E1FFA8EF121B321
:105600008C4515D294450DD8A2EB0C0293B2438180
:105610000EE0A2EB030E4FEA4C0111FA8EFE1FFAC8
:105620008EF1ECE7624493B2F1E7A3EB0C039BB27B
:105630009C45FAD90168C288C2F30E0202FB03112D
:10564000204600F095FA012010BD0846FCE72DE940
:10565000F84304460F469DF82050B0F804C0ACEB68
:10566000030080B2A3EB0C0C94441FFA8CFCE1887D
:10567000C1F30E0E76461EFB00F189B288461EFB72
:105680000CFE1FFA8EF18946216806FB031135B91D
:10569000904206D306FB02F2384600F069FABDE8F4
:1056A000F8834246384600F063FA4A462168384695
:1056B000404400F05DFAF2E730B583B015469E46EF
:1056C000BDF81830B0F804C09E4511D3AEEB03040A
:1056D000A4B224B3A44507D2F44511D8AEEB0C0E06
:1056E0001FFA8EF343816446AC4210D32C460EE081
:1056F000AEEB03044FEA4C0212FA84F4A4B2E8E7DA
:10570000E6441FFA8EF3EDE7A3EB0C039BB29C4536
:10571000FAD99DF81C2000922246FFF798FF2046F8
:1057200003B030BDF0B583B004460D4616461F46A3
:10573000006918B14FF0FF3100F0CEFA2389628979
:1057400092B2019700929BB2324629462046FFF75B
:10575000B3FF02460546618989B2A088FFF738FF8A
:105760006081206908B100F0C3FA284603B0F0BD9B
:105770002DE9F04104460F469DF818E0B0F804C04A
:10578000ACEB030189B2A3EB0C0C94441FFA8CFC24
:10579000C588C5F30E00054610FB01F610FB0CF0A2
:1057A00080B28046206805FB0300BEF1000F07D1E0
:1057B000B6B2914206D305FB02F2394600F0D8F9A1
:1057C000BDE8F0813246394600F0D2F9424639460A
:1057D0003144206800F0CCF9F2E72DE9F04383B0C2
:1057E0001646002A73D0044689469846C06818B108
:1057F0004FF0FF3100F070FA23899AB21746B4F8DF
:105800000AC01FFA8CF1E379DB091DD1A5888A4211
:1058100012D3A2EB010C1FFA8CFC654555D9A5EB00
:105820000C05ADB23346AE4228BF2B461D46002DB7
:1058300043D0A2883B4631E0A2EB010C6B0013FA87
:105840008CFC1FFA8CFCE8E7A588B5420AD84246D2
:10585000F2B9721BE388C3F30E0303FB029399466C
:105860000F46E4E78A420DD3531A9BB23344B3EB9D
:10587000450F0FDBAA1B92B22846FFF7A9FE074689
:105880003546D4E7531A6A0012FA83F39BB2EDE768
:105890000F46CCE73546CAE79B1A9BB29A42FBD922
:1058A000CDF800802A4649462046FFF761FF2A4688
:1058B0003946A088FFF78CFE2081E06808B100F02F
:1058C00017FA284603B0BDE8F0830025F5E7154632
:1058D000F7E7F8B51F46B2F5004F27D804460D4646
:1058E0001646C06818B14FF0FF3100F0F5F9206995
:1058F00018B14FF0FF3100F0EFF92560A680E38882
:1059000067F30E03E380E3799DF8182062F3C71371
:10591000E371002363812381E06808B100F0E8F9B6
:10592000206928B100F0E4F90120F8BD0020FCE76F
:105930000120FAE70246808813899BB2528992B20D
:10594000934205D39B1A9BB2984228BF18467047D2
:105950009B1A420012FA83F39BB2F5E7028992B2D6
:1059600043899BB29A4214BF00200120704781886E
:1059700003899BB2428992B2934206D39B1A98B292
:1059800081428CBF0020012070479B1A4A0012FA06
:1059900083F398B2F4E7828803899BB2418989B284
:1059A0008B4206D35B1A9BB29A4208D9D01A80B2B6
:1059B00070475B1A510011FA83F39BB2F4E70020A1
:1059C000704738B504460D46006918B14FF0FF31F5
:1059D00000F082F9228963899BB292B2294620465F
:1059E000FFF703FE02460546618989B2A088FFF7EA
:1059F000EFFD6081206908B100F07AF9284638BDD2
:105A000008B50023FFF78EFE08BDF8B504460F4623
:105A1000C06818B14FF0FF3100F05EF923899BB2E6
:105A20001D462046FFF7A3FF18B1E379DB091E46A8
:105A300017D0A2882B4601E09B1A9BB29A42FBD951
:105A40002068E288C2F30E02394602FB030000F030
:105A50008FF801222946A088FFF7BAFD2081012393
:105A60001E46E06808B100F043F93046F8BD08B5BD
:105A70000023FFF7B2FE08BD10B50446C06818B198
:105A80004FF0FF3100F028F9206918B14FF0FF31D5
:105A900000F022F9002363812381E06808B100F05F
:105AA00027F9206908B100F023F9012010BD38B5AD
:105AB00004460D46C06818B14FF0FF3100F00CF9F4
:105AC000206918B14FF0FF3100F006F9E37965F372
:105AD000C713E371E06808B100F00AF9206908B162
